:020000040800F2
:10000000F006002091010008E1180008171600080A
:10001000DF180008A3050008731B0008000000009B
:10002000000000000000000000000000FD1A0008B1
:10003000A505000800000000E3180008FF1A0008EA
:10004000AB010008AB010008AB010008AB010008E0
:10005000AB010008AB010008AB010008AB010008D0
:10006000AB010008AB010008AB010008AB010008C0
:10007000AB010008AB010008AB010008AB010008B0
:10008000AB010008AB010008AB010008AB010008A0
:10009000AB010008AB010008AB010008AB01000890
:1000A000AB010008AB010008AB010008AB01000880
:1000B000AB010008AB010008AB010008AB01000870
:1000C000AB010008AB010008AB010008AB01000860
:1000D000AB010008AB010008AB010008AB01000850
:1000E000AB010008AB010008AB01000800F002F80A
:1000F00000F03FF80AA090E8000C82448344AAF183
:100100000107DA4501D100F034F8AFF2090EBAE880
:100110000F0013F0010F18BFFB1A43F0010318473B
:10012000801D0000A01D0000103A24BF78C878C1CF
:10013000FAD8520724BF30C830C144BF04680C60ED
:10014000704700000023002400250026103A28BF35
:1001500078C1FBD8520728BF30C148BF0B60704739
:10016000642900F07180002070471FB51FBD10B5D5
:1001700010BD00F0E0F91146FFF7F7FF01F0D4FDE4
:1001800000F0FEF903B4FFF7F2FF03BC00F002FA3F
:100190000948804709480047FEE7FEE7FEE7FEE71B
:1001A000FEE7FEE7FEE7FEE7FEE7FEE70448054957
:1001B000054A064B70470000711B0008ED0000085F
:1001C000F0000020F0060020F0020020F0020020E5
:1001D0000FB41CB5074B06AA7B44694600900598EE
:1001E00000F091F90020694600F0A0F91CBC5DF810
:1001F00014FB00005103000070B5044685690068D7
:10020000C10601D5302600E02026C00707D070BD0A
:10021000D4E9012130469047206A401C20626D1EBF
:10022000F6D570BD70B5044685690078C00707D162
:1002300070BDD4E9012120209047206A401C206233
:100240006D1EF6D570BD00002DE9F0410646002474
:1002500010687529314615A510D0AFF3008000282D
:1002600002DA404212A507E031688A0701D511A5DC
:1002700002E0490704D510A5012401E0AFF3008096
:1002800000210A2306F1240707E0B0FBF3F203FB89
:100290001200303078541046491C0028F5D123460E
:1002A0002A463046BDE8F04100F0CEB8000000001C
:1002B0002D0000002B000000200000002DE9F05F61
:1002C000894604464FF0000ADFF824B1FB44C0F829
:1002D00020A02046E168884700287DD0252806D048
:1002E000D4E901219047206A401C2062F1E70025F3
:1002F0005F462046E16888472028064607DB312E06
:1003000005D2B81910F8200C08B10543F1E7A80789
:1003100001D525F00405C4F81CA00027C4F818A0D6
:100320002A2E09D0304601F035FC38B304EB87089B
:10033000303EC8F8186019E059F8041B204604EB59
:1003400087029161E1688847012F064618D1E0696C
:10035000002820DA25F020051DE0D8F8180000EB71
:10036000800006EB40003038C8F818002046E168ED
:100370008847064601F00EFC0028EED1012F0AD076
:100380002E2E08D12046E16888477F1C0646022FA2
:1003900045F02005C4DBA069002803DA404245F09F
:1003A0000105A061E80701D025F01005A6B1A6F16E
:1003B0004100192802D8203645F400654A463146E6
:1003C000204625604D46FFF7CBFE60B1012807D0DF
:1003D000ED1D25F0070000E007E000F1080978E7CF
:1003E00005F1040975E730467AE7206ABDE8F09F19
:1003F000BC1B00004FF0000200B513469446964621
:10040000203922BFA0E80C50A0E80C50B1F1200127
:10041000BFF4F7AF090728BFA0E80C5048BF0CC0D5
:100420005DF804EB890028BF40F8042B08BF704733
:1004300048BF20F8022B11F0804F18BF00F8012BA5
:1004400070477047704770472DE9F0470D46994651
:100450009246044600F124080168880604D5E06944
:1004600021F01001216000E00120A84201DD471BBE
:1004700000E00027A1697A1902EB0900081AA061BF
:100480002078C00602D42046FFF7B6FE002608E01A
:10049000D4E901211AF806009047206A401C761C16
:1004A00020624E45F4DB2078C0060AD52046FFF7CF
:1004B000A3FE06E0D4E9012130209047206A401CC9
:1004C0002062381EA7F10107F4DC07E0D4E901211E
:1004D00018F805009047206A401C2062281EA5F1EC
:1004E0000105F3DC2046FFF79DFE2078000602D5CB
:1004F0000220BDE8F0870120FBE7000001694A1CEB
:1005000002610878704700B58FB0CDE90131002154
:10051000059105497944CDE9031011466846FFF776
:10052000CDFE0FB000BD0000E5FFFFFF0A6802F836
:10053000010B0A607047754600F028F8AE460500CA
:100540006946534620F00700854618B020B5FFF7EE
:100550002DFEBDE820404FF000064FF000074FF0A1
:1005600000084FF0000B21F00701AC46ACE8C009D1
:10057000ACE8C009ACE8C009ACE8C0098D467047DA
:100580000446AFF300802046FFF7FCFD00487047AB
:100590008C00002001491820ABBEFEE726000200B7
:1005A0007047FEE77047000070B5044600F0FEF8A3
:1005B0000546601C02D004480078044400F0F6F8B8
:1005C000401BA042FAD370BD000000202DE9F84F77
:1005D000DFF8B8910024A9F1040B23460F2709F195
:1005E000040AABF1040EC9E00125A5402A40AA4245
:1005F0007DD1674ED1F804C0ACEB0608B44532D0CB
:1006000014DCBCF1030F3AD009DCBCF1000F2AD096
:10061000BCF1010F1CD0BCF1020F31D11DE0BCF1C7
:10062000110F17D0BCF1120F2AD119E0B8F5881FAD
:1006300019D006DCB8F5803F15D0B8F5801F1FD162
:1006400011E0B8F5001F0ED0B8F5041F18D10AE06C
:10065000CB6815E0CB681B1D12E0CB6808330FE0B8
:10066000CB680C330CE08B682BB1012B4FF00803E7
:1006700003D0456104E0042302E0056100E00023AB
:10068000FF2A01D8064601E000F104064FEA84057E
:1006900001D9A5F12005D6F8008007FA05FC28EA63
:1006A0000C0803FA05F548EA0508C6F800804D680D
:1006B000ED0062D5374DAE6946F00106AE61AD6919
:1006C00024F0030605F001050095334D06EB050CFB
:1006D000DCF80850A607360F07FA06F825EA0805E1
:1006E000DFF8B880404503D14FF0000817E044E040
:1006F000DFF8AC80404502D14FF001080FE0DFF891
:10070000A480404502D14FF0020808E0DFF898804D
:10071000404502D14FF0030801E04FF0040808FA09
:1007200006F848EA0508CCF808804D68D9F800605A
:10073000ED024D4601D5164300E096432E604D680C
:10074000DAF80060AD02554601D5164300E0964345
:100750002E604D68DBF80060AD035D4601D51643A1
:1007600000E096432E604D68DEF80060ED037546AC
:1007700001D5164300E096432E60641C0D682A469E
:10078000E5407FF431AFBDE8F88F00000804014078
:10079000000011100010024000000140000801405C
:1007A000000C014000100140001401400148806825
:1007B000704700000000002070B5040025D094F8B8
:1007C0003D00002520B984F83C50204600F048F94F
:1007D000242084F83D002068016821F001010160B7
:1007E0002068016841F4004101602068016821F43B
:1007F0000041016000F052FB4A4A6168914201D811
:10080000494900E04949884201D2012070BD484968
:100810002368B0FBF1F15E6826F03F060E435E6090
:100820006368934206D94FF4967359434FF47A7331
:10083000B1FBF3F12368491C1E6A26F03F063143E1
:100840001962616891420AD84900401EB0FBF1F07C
:10085000401CC0F30B0004281ED204201CE0A36837
:10086000F3B301EBC10202EB0116421EB2FBF6F23A
:10087000521C42F48042120549D093B301EBC102ED
:1008800002EB0111401EB0FBF1F0401CC0F30B0065
:1008900040F4804040F400402168CA694CF6FF7380
:1008A0009A431043C861D4E90710014320680268E5
:1008B00022F0C00211430160D4E903010143206822
:1008C000826848F2FF339A4311438160D4E90501FD
:1008D00008432168CA6822F0FF021043C86001E0A3
:1008E0000EE016E02068016841F001010160256416
:1008F000202084F83D00256384F83E50002070BD20
:1009000001EB4106421EB2FBF6F2521CB3E7012096
:10091000C2E701EB4101401EB0FBF1F0401CC0F307
:100920000B00B7E7A086010080841E0000093D008F
:1009300040420F002DE9F84F1F4690468A46044674
:10094000DDF82890FFF732FF054694F83D00202897
:100950007FD11923012240492046009500F0EEFE88
:10096000002876D194F83C00012872D0012084F848
:100970003C0020680168C90703D1016841F001010A
:1009800001602068016821F400610160212084F881
:100990003D00102084F83E0000262664C4F8248020
:1009A0006785608D20852D48E0622B464A4651467A
:1009B000204600F049FE90B92068416980690090A6
:1009C00036E02A464946204600F05EFF50B1206CD2
:1009D000042804D12068016841F4007101600120FD
:1009E000BDE8F88F606A216800780861606A401C81
:1009F0006062618D491E6185218D491E89B2218504
:100A000022685369DB435B070BD451B10078106156
:100A1000606A401C6062608D401E6085208D401EB3
:100A200020852A464946204600F05CFE0028CED1AB
:100A3000208D0028C5D154F83D0B016841F40071A8
:100A40000160202004F81E09E67766770020C7E7DA
:100A5000FFE70220C4E70000020010000000FFFFD3
:100A600010B586B0002100910191029103910068B8
:100A7000104988421BD1104CA06940F00800A061C9
:100A8000A069694600F0080004904FF440600090AF
:100A900012200190032003900848FFF797FDE069BA
:100AA00040F48000E061E06900F48000049006B04A
:100AB00010BD00000058004000100240000C014032
:100AC000024881680278114481607047000000206C
:100AD000074810B5016841F010010160032000F0E3
:100AE00067F80F2000F006F800F024F8002010BD91
:100AF0000020024070B50D4D04464FF47A712878FD
:100B0000B1FBF0F00A490968B1FBF0F000F06FFDAD
:100B100048B9102C07D200222146501E00F028F8B8
:100B200000206C6070BD012070BD0000000000203E
:100B30000C0000200C4808B5816941F00101816179
:100B4000816901F001010091C16941F08051C161E9
:100B5000C06900F0805000900448416821F0E061D5
:100B600041F00071416008BD0010024000000140EA
:100B7000F0B40E4B1B680C46C3F30223C3F1070508
:100B8000042D00D90425191D072901D2002300E0F6
:100B9000DB1E012606FA05F1491E214099409E40C0
:100BA000761E16403143F0BC00F0E4BF0CED00E0CF
:100BB000064900F0070208684FF6FF03184040EAB4
:100BC0000220034A10430860704700000CED00E06B
:100BD0000000FA05014901200862704700000E423A
:100BE00010B501460020234C012922D0022939D01A
:100BF00010291DD161682268D20119D51E48C1F3A0
:100C00008342C903805C0AD561681B4AC1F3404135
:100C1000921E515C194AB2FBF1F1484301E01849B8
:100C200048436168490203D440000321B0FBF1F05E
:100C300010BD226AC2F30121012903D1920701D517
:100C4000C80310BD022905D1626A920702D549F690
:100C5000404010BD0329FCD121688903F9D54FF22A
:100C6000244010BD00F02AF96168C1F38131491CAC
:100C70004900DBE700100240641E000800127A0001
:100C800000093D002DE9F84305460078354CC007C2
:100C900054D0E0690026C00008D4E06940F08050DC
:100CA000E061E069012600F0805000902E48016864
:100CB000C90512D40168804641F480710160FFF7D4
:100CC00075FD074605E000BFFFF770FDC01B6428F7
:100CD00023D8D8F80000C005F6D5206A10F440707B
:100CE00021D0A98801F4407181421CD0206A1F499B
:100CF000012220F440700A6000220A602062C007CE
:100D000011D0FFF753FD074641F2883808E000BFD5
:100D1000FFF74CFDC11B414502D90320BDE8F88314
:100D2000206A8007F4D5206A696820F4407008437F
:100D300020621EB1E06920F08050E06128788007D1
:100D400005D56068A96820F44040084360602878B1
:100D5000C00605D56068E96820F48000084360603B
:100D60000020DBE7001002400070004040044242D7
:100D70002DE9F0470F46050061D0434E306800F082
:100D80000700B84209D2306820F0070038433060CD
:100D9000306800F00700B84251D128683B4C810709
:100DA00012D5400703D5606840F4E06060602878A1
:100DB000000703D5606840F4605060606068A9680F
:100DC00020F0F000084360602878C00728D06868E9
:100DD000012810D02168022810D0890700292EDAB6
:100DE000616821F0030101436160FFF7DFFC804689
:100DF00041F288390DE021688903EFE78901EDE7C9
:100E0000FFF7D4FCA0EB0801494502D90320BDE857
:100E1000F0876068696800F00C00B0EB810FEFD1DB
:100E2000306800F00700B8420BD9306820F00700A6
:100E300038433060306800F00700B84201D001202C
:100E4000E5E72878400705D56068E96820F4E060A8
:100E5000084360602878000706D56068296920F497
:100E6000605040EAC100606000F038F86168084AEC
:100E7000C1F30311515CC840064908600648006888
:100E8000FFF738FE0020C2E70020024000100240B9
:100E9000741E00080C0000200400002004480549CE
:100EA00000684968044AC1F30221515CC840704798
:100EB0000C00002000100240841E00080448054970
:100EC00000684968044AC1F3C221515CC8407047B8
:100ED0000C00002000100240841E00080E4A5168D9
:100EE0000E4801F00C03042B11D0082B0FD10C4835
:100EF000C1F38343C903C05C0AD55168084AC1F3F2
:100F00004041921E515C054A5043B0FBF1F07047DE
:100F100004494843704700000010024000127A0064
:100F2000521E000800093D002DE9F84F040070D062
:100F30002078C04DC00749D06868C0F381000128FF
:100F400007D06868C0F38100022809D16868C0032F
:100F500006D52868800339D560680028E7D035E0D9
:100F60006068B0F5803F0BD010B1B0F5A02F11D064
:100F7000286820F480302860286820F4802002E06F
:100F8000286840F480302860606890B1FFF70EFC5C
:100F900006460AE0286840F480202860F0E700BF99
:100FA000FFF704FC801B642873D828688003F7D5FA
:100FB0000CE0FFF7FBFB064605E000BFFFF7F6FB82
:100FC000801B6428F0D828688003F7D420789A4ED4
:100FD00080074FF001094FF0000839D5686810F01C
:100FE0000C0F07D06868C0F38100022809D1686837
:100FF000C00306D42868800714D52069012808D1C9
:1010000010E02069B0B1C6F80090FFF7CFFB0746AB
:1010100005E00AE1FFF7CAFBC01B0228C4D8286814
:101020008007F7D52868616920F0F80040EAC10020
:1010300028600DE0C6F80080FFF7B8FB074604E023
:10104000FFF7B4FBC01B022823D828688007F7D419
:10105000207800072CD57948A169D9B1C0F8009053
:10106000FFF7A4FB074604E0FFF7A0FBC01B022824
:101070000FD8686A8007F7D571484FF4FA510068B5
:10108000B0FBF1F0009000BF0098411E0091FAD231
:101090000EE080E0C0F80080FFF788FB074604E020
:1010A000FFF784FBC01B022875D8686A8007F7D455
:1010B0002078400760D5E8690027C00008D4E869B7
:1010C00040F08050E861E869012700F0805000900E
:1010D0005C480168C90513D40168834641F48071F6
:1010E0000160FFF763FB824606E000BFFFF75EFB8F
:1010F000A0EB0A0064284ED8DBF80000C005F5D547
:10110000E06801280AD008B1052813D0286A20F029
:1011100001002862286A20F0040002E0286A40F0FA
:1011200001002862E06841F2883B98B1FFF73EFB7E
:1011300082460BE0286A40F004002862EEE700BF18
:10114000FFF734FBA0EB0A0159455AD8286A8007FB
:10115000F6D50CE0FFF72AFB824605E0FFF726FBF9
:10116000A0EB0A0159454CD8286A8007F6D41FB174
:10117000E86920F08050E861E06988B36968C1F3EC
:101180008101022944D00228C6F8608004D0FFF70C
:101190000DFB044638E034E0FFF708FB074604E0A7
:1011A000FFF704FBC01B02282BD828688001F7D466
:1011B000206AB0F5803F05D16868A16820F400304E
:1011C00008436860D4E908010843696821F4741190
:1011D00008436860C6F86090FFF7E8FA044606E046
:1011E00025E000BFFFF7E2FA001B022809D82868B3
:1011F0008001F7D51BE000BFFFF7D8FA001B0228DB
:1012000002D90320BDE8F88F28688001F4D40EE0ED
:101210000128F7D06868226A00F48031914204D135
:10122000616A00F47010884201D00120EAE70020D2
:10123000E8E7000000100240000042428004424201
:101240000C00002000700040024850F8210080B2DD
:1012500070470000006C0040024800EB810091B232
:1012600001607047006C0040F8B505004FF00000C9
:1012700016460C46009006D02CB10022694628463E
:1012800000F019F808B10120F8BD287B2070E87B38
:10129000E070697B6170A97BA17056B100F02BFBF7
:1012A000E070607800F027FB6070A07800F023FB0E
:1012B000A0700020F8BD2DE9F04791460C465FEA8A
:1012C000000840D0CCB3D8F80000406840073AD4BA
:1012D000404600F0AFFB4FF46162B0FBF2F105460F
:1012E00002FB11533C22B3FBF2F0607002FB1030A2
:1012F000A07018292FD31820B1FBF0F600FB1610B0
:101300002070404600F08FFB411C03D0A84201D959
:10131000471B01E04FF0FF37A6EB061000EB400043
:10132000C0EB001005EBC0152946404600F0D2FB8B
:1013300018B9781C02D0791901E004E0394640461A
:1013400000F0B4FB10B10120BDE8F0873146404603
:1013500000F0DCFA00E02170B9F1000F0BD020782A
:1013600000F0C9FA2070607800F0C5FA6070A078CB
:1013700000F0C1FAA0700020E6E7000070B504009C
:1013800003D0607C002610B105E0012070BD2674FA
:10139000204600F03DF802206074204600F00AF973
:1013A000042550BB204600F008FB30BB2068416894
:1013B00021F007014160A06820B11448016821F0C4
:1013C000010101601148001F0168A26821F46071E9
:1013D000114301606068411C04D10120FFF700FC4B
:1013E00058B1401E2268C0F303419160216880B269
:1013F000C860204600F0FCFA08B16574C5E7E673E2
:1014000001206073A0736074002070BD306C0040D8
:1014100008B50068084988420DD1FFF7DBFB074893
:10142000C16941F00061C161C069054900F0006017
:1014300000900120086008BD002800400010024014
:101440003C0442422DE9F0410D4604003BD0C5B3B7
:10145000207C01283AD04FF0010884F81080022047
:101460006074E87872B300F03DFAE073687800F0D9
:1014700039FA6073A87800F035FAA073C2B2617BC4
:10148000E07B00F0E7FA20732870204600F0D2FAE3
:101490004FF46161B0FBF1F1002518292DD9182214
:1014A000B1FBF2F1A1EB011101EB4101C1EB011123
:1014B00000EBC1163146204600F00CFB0427C8B9EA
:1014C0000BE000E004E00120BDE8F0810220FBE732
:1014D000E07368786073A878CFE7204600F0A3FA3D
:1014E000411C0AD0B04208D206490144204600F00F
:1014F000DDFA10B167742574E5E784F8118025746E
:101500000020E1E7805101002DE9F0410D46040083
:1015100024D01DB3207C012823D04FF0010884F88B
:101520001080022060742878EAB100F0DBF94FF4F3
:10153000616100FB01F6687800F0D4F9C0EB00109F
:1015400006EB8006A87800F0CDF93518294620462C
:1015500000F0C0FA0026042710BB0FE00120BDE810
:10156000F0810220FBE74FF4616148436978C1EBE9
:10157000011100EB8100A9784518E7E72068416870
:1015800021F005014160204600F04DFA411C0AD0CF
:10159000A84208D206490144204600F087FA10B15B
:1015A00067742674DAE784F8118026740020D6E781
:1015B0008051010070B504000AD02068416821F014
:1015C00008014160FFF7F2F805464FF47A7608E02B
:1015D000012070BDFFF7EAF8401BB04201D903209B
:1015E00070BD206840680007F4D5002070BD10B5BC
:1015F000401EB0F1807F01D3012010BD4FF0E024E8
:1016000060610F21601700F0B5FA0020A06107208B
:101610002061002010BDFEE701684A69D2435205EF
:101620000FD46FF480624A61002140F8301F2022FD
:1016300042738173026942F0040202610173012066
:101640007047002070470000F8B50446C06A1E4687
:101650000D461746082807D0012805D010F5803F11
:1016600002D0206B122804D12068016841F48071F7
:101670000160134600224FF001112046009600F051
:101680005DF840B120680068C00502D54FF40070D5
:1016900020640320F8BD2069B0F5804F0ED00620ED
:1016A000216800EAD51040F0F000086133463A4660
:1016B0000B49204600F08AF878B902E005F0FE00F8
:1016C00000E0E8B221680861054933463A46891FBF
:1016D000204600F07BF80028DCD00120F8BD000097
:1016E0000800010070B516460D4604461EE020466F
:1016F000FFF792FF08B1012070BD681C16D0FFF7FC
:1017000055F8801BA84200D885B920684069C043BD
:1017100040070BD5002044F8300F20216173A073DF
:10172000216941F0200121612073E4E720684069CC
:10173000C0434007DBD4002070BD00002DE9F04716
:10174000984617460D460446C1F30746DDF820903B
:101750002AE000BFB8F1FF3F26D0FFF727F8A0EB43
:101760000901414502D8B8F1000F1DD12068012EB2
:1017700016D0806925EA00000004000C12D0002079
:10178000B84211D1002044F8300F20216173A073BA
:10179000216941F02001216120730120BDE8F0871B
:1017A0004069E7E70120EBE72068012E0AD0806955
:1017B00025EA00000004000C06D00020B842C9D081
:1017C0000020EBE74069F3E70120F7E72DE9F04758
:1017D000984616460D4604464FF000094FF0200A81
:1017E000C1F3074723E020684069C043400515D492
:1017F0002068016841F40071016021686FF4806025
:101800004861C4F8309084F83DA084F83E90216C83
:1018100041F00401216484F83C9021E0701C06D062
:10182000FEF7C4FFA0EB0800B04203D816B1012FA9
:101830001FD021E02068012F15D0806925EA000023
:101840000004000C18D000BF44F8309F84F80DA0AD
:1018500084F80E90216941F02001216184F80C90F8
:101860000120BDE8F087406925EA00000004000C73
:10187000EAD12068406901E02068806925EA00001B
:101880000004000CAFD1ECE770B516460D460446D7
:101890001EE02046FFF7C0FE08B1012070BD681CA5
:1018A00016D0FEF783FF801BA84200D885B92068B8
:1018B0004069C04300060BD5002044F8300F2021BA
:1018C0006173A073216941F0200121612073E4E775
:1018D00020684069C0430006DBD4002070BDFEE7ED
:1018E000FEE77047010901EB810100F00F0000EBFA
:1018F0004100C0B27047002102E00A38C0B2491C62
:101900000A28FAD2090740EA116070472DE9F04130
:1019100004460025C07B627BA37B42E0012A16D0EF
:10192000032A14D0052A12D0072A10D0082A0ED074
:101930000A2A0CD00C2A0AD0042A10D0062A0ED06B
:10194000092A0CD00B2A0AD0022A0DD028E01F2B1E
:101950000CD30C2A05D101221346401C20E01E2B7B
:1019600004D30123521C1BE01C2B02D203F1010300
:1019700016E011D183B29E0710D16426B3FBF6F7AF
:1019800006FB173636B94FF4C876B3FBF6F706FBFD
:1019900017331BB91D2303E01D2B01D103220123A3
:1019A0006D1C8D42BAD3D1B2E0736173DAB2A27307
:1019B00000F050F82073BDE8F08170B50446FEF7E2
:1019C000F5FE05464FF47A7606E0FEF7EFFE401B83
:1019D000B04201D9032070BD206840688006F4D56C
:1019E0002068416841F010014160002070BD000096
:1019F00070B504460068416821F010014160FEF7AF
:101A0000D5FE05464FF47A7607E000BFFEF7CEFE1E
:101A1000401BB04201D9032070BD20684068800699
:101A2000F4D5002070BD0168086A496A89B241EAAC
:101A300000407047006881698AB2C1698BB28169D0
:101A400089B28A4203D0C06961F31F40704743EAFC
:101A50000240704730B5C1EBC10404EB0114092505
:101A6000B4FBF5F400F5FA632244184610446422EE
:101A70009400072503290AD25B1EB3FBF2F100EBA9
:101A80009300401AB3FBF4F10844001D08E0B3FBD7
:101A9000F2F100EB9300401AB3FBF4F10844801C10
:101AA000B0FBF5F105FB1100C0B230BD70B50D46BD
:101AB00006460024FFF781FF48B93168280C086208
:101AC0003168A8B248623046FFF792FF00B10124A6
:101AD000204670BD70B50D4606460024FFF76DFF29
:101AE00048B93168280C88613168A8B2C8613046AD
:101AF000FFF77EFF00B10124204670BD7047FEF75E
:101B0000DFBF30B593B028216846FEF773FC14217F
:101B10000AA8FEF76FFC00240F9406200125009010
:101B20001020CDE904501194039510941294079459
:101B30006846FFF7F9F908B172B6FEE70F20CDE964
:101B40000A040C940D9400210AA80E94FFF710F9D2
:101B500008B172B6FEE74FF48070CDE90F500FA8C0
:101B6000FFF790F8002801D072B6FEE713B030BD41
:101B70007047FEE70907090E002804DB00F1E020AA
:101B800080F80014704700F00F0000F1E02080F8AA
:101B9000141D704730380A2801D2012070470020F8
:101BA0007047000010B5802000F074F8054800F080
:101BB000B1F8C02000F06EF80248BDE810400A30CD
:101BC00000F0A8B8780000200EB5002202A9114844
:101BD000FFF771FB002201A90E48FFF745FB9DF8B6
:101BE0000A0000900B489DF809309DF808200AA1D2
:101BF0001430FEF7EDFA9DF807009DF8053000F56A
:101C0000FA60009003489DF8062007A11E30FEF7F9
:101C1000DFFA0EBD64000020253032643A253032F0
:101C2000643A253032640000253032642D2530328C
:101C3000642D25326400000010B5332000F02AF82E
:101C4000322000F027F83220FEF7AEFC282000F00A
:101C500021F83220FEF7A8FC012000F01BF832200A
:101C6000FEF7A2FC062000F015F83220FEF79CFCDF
:101C70000C2000F00FF83220FEF796FC022000F056
:101C800009F83220FEF790FCBDE81040802000F0FB
:101C900001B800001CB500F0F00141F00C028DF815
:101CA000042041F0080100018DF8051040F00C01FE
:101CB0008DF8061040F008008DF8070064200090B1
:101CC000042301AA4E210248FEF734FE1CBD000089
:101CD000100000201CB500F0F00141F00D028DF85D
:101CE000042041F0090100018DF8051040F00D01BC
:101CF0008DF8061040F009008DF807006420009070
:101D0000042301AA4E210248FEF714FE1CBD000068
:101D10001000002010B5044602E0641CFFF7DAFF53
:101D200020780028F9D110BD08B5FEF7D1FEFFF7E5
:101D3000E8FE2A48816941F010018161816901F062
:101D400010010091816941F004018161816901F014
:101D500004010091816941F0080181618069204995
:101D600000F0080000901F484FF4804201601E49B7
:101D7000416000218160C0E9031241618161C1615C
:101D80000162FEF719FD08B172B6FEE71548174962
:101D9000543001604FF0FF3141604FF48071816039
:101DA000FFF7ECFA08B172B6FEE7FFF745FF0D4802
:101DB00001215430FFF748FAA0F54851F23901D01B
:101DC00000F016F800F014F84FF4FA74FFF7FCFE78
:101DD000FFF7E8FE2046FEF7E7FBF7E700100240BA
:101DE0000058004010000020A0860100002800409C
:101DF0001CB512208DF8040014208DF80500082071
:101E00008DF80600002201A91048FFF77DFB08B1FC
:101E100072B6FEE701208DF8000009208DF8010060
:101E200019208DF8020017208DF803000022694662
:101E30000648FFF707FB08B172B6FEE743F2F2224D
:101E400001210248FFF708FA1CBD000064000020D1
:101E5000010202030405060708090A0B0C0D0E0F08
:101E60001010010202030405060708090A0B0C0DF5
:101E70000E0F10100000000000000000010203041B
:101E8000060708090000000001020304040000081E
:101E9000000000000000000200010000100000002F
:101EA000C01E0008000000201000000028010008EB
:101EB000D01E000810000020E006000044010008C9
:101EC0000100000010000000000000000024F400E9
:04000005080000ED02
:00000001FF
